{
  "contractName": "bookstay",
  "abi": [
    {
      "inputs": [
        {
          "internalType": "string",
          "name": "keyword",
          "type": "string"
        }
      ],
      "name": "storeKeyword",
      "outputs": [],
      "stateMutability": "nonpayable",
      "type": "function"
    },
    {
      "inputs": [],
      "name": "getKeywords",
      "outputs": [
        {
          "internalType": "string[]",
          "name": "",
          "type": "string[]"
        }
      ],
      "stateMutability": "view",
      "type": "function"
    }
  ],
  "bytecode": "0x608060405234801561001057600080fd5b506106bd806100206000396000f3fe608060405234801561001057600080fd5b50600436106100365760003560e01c806326ec7da51461003b5780634d13610c14610057575b600080fd5b61005560048036038101906100509190610347565b610075565b005b61005f6100b9565b60405161006c919061044a565b60405180910390f35b806000806001548152602001908152602001600020908051906020019061009d92919061023c565b50600160008154809291906100b1906105a0565b919050555050565b6060600060015467ffffffffffffffff8111156100ff577f4e487b7100000000000000000000000000000000000000000000000000000000600052604160045260246000fd5b60405190808252806020026020018201604052801561013257816020015b606081526020019060019003908161011d5790505b50905060005b60015481101561023457600080828152602001908152602001600020805461015f9061056e565b80601f016020809104026020016040519081016040528092919081815260200182805461018b9061056e565b80156101d85780601f106101ad576101008083540402835291602001916101d8565b820191906000526020600020905b8154815290600101906020018083116101bb57829003601f168201915b5050505050828281518110610216577f4e487b7100000000000000000000000000000000000000000000000000000000600052603260045260246000fd5b6020026020010181905250808061022c906105a0565b915050610138565b508091505090565b8280546102489061056e565b90600052602060002090601f01602090048101928261026a57600085556102b1565b82601f1061028357805160ff19168380011785556102b1565b828001600101855582156102b1579182015b828111156102b0578251825591602001919060010190610295565b5b5090506102be91906102c2565b5090565b5b808211156102db5760008160009055506001016102c3565b5090565b60006102f26102ed8461049d565b61046c565b90508281526020810184848401111561030a57600080fd5b61031584828561052c565b509392505050565b600082601f83011261032e57600080fd5b813561033e8482602086016102df565b91505092915050565b60006020828403121561035957600080fd5b600082013567ffffffffffffffff81111561037357600080fd5b61037f8482850161031d565b91505092915050565b60006103948383610411565b905092915050565b60006103a7826104dd565b6103b18185610500565b9350836020820285016103c3856104cd565b8060005b858110156103ff57848403895281516103e08582610388565b94506103eb836104f3565b925060208a019950506001810190506103c7565b50829750879550505050505092915050565b600061041c826104e8565b6104268185610511565b935061043681856020860161053b565b61043f81610676565b840191505092915050565b60006020820190508181036000830152610464818461039c565b905092915050565b6000604051905081810181811067ffffffffffffffff8211171561049357610492610647565b5b8060405250919050565b600067ffffffffffffffff8211156104b8576104b7610647565b5b601f19601f8301169050602081019050919050565b6000819050602082019050919050565b600081519050919050565b600081519050919050565b6000602082019050919050565b600082825260208201905092915050565b600082825260208201905092915050565b6000819050919050565b82818337600083830152505050565b60005b8381101561055957808201518184015260208101905061053e565b83811115610568576000848401525b50505050565b6000600282049050600182168061058657607f821691505b6020821081141561059a57610599610618565b5b50919050565b60006105ab82610522565b91507fffffffffffffffffffffffffffffffffffffffffffffffffffffffffffffffff8214156105de576105dd6105e9565b5b600182019050919050565b7f4e487b7100000000000000000000000000000000000000000000000000000000600052601160045260246000fd5b7f4e487b7100000000000000000000000000000000000000000000000000000000600052602260045260246000fd5b7f4e487b7100000000000000000000000000000000000000000000000000000000600052604160045260246000fd5b6000601f19601f830116905091905056fea2646970667358221220420871d31a853f1e006cb198f953904a6d837590b857379ce2e0083f3cbea79b64736f6c63430008000033",
  "immutableReferences": {},
  "source": "// SPDX-License-Identifier: MIT\r\npragma solidity ^0.8.0;\r\n\r\ncontract bookstay{\r\n    mapping (uint => string) keywords;\r\n    uint numKeywords;\r\n    \r\n    function storeKeyword(string memory keyword) public {\r\n        keywords[numKeywords] = keyword;\r\n        numKeywords++;\r\n    }\r\n    \r\n    function getKeywords() public view returns (string[] memory) {\r\n        string[] memory result = new string[](numKeywords);\r\n        for (uint i = 0; i < numKeywords; i++) {\r\n            result[i] = keywords[i];\r\n        }\r\n        return result;\r\n    }\r\n}\r\n",
  "sourcePath": "C:\\Users\\USER\\Desktop\\bookstay reg page\\contracts\\bookstay.sol",
  "compiler": {
    "name": "solc",
    "version": "0.8.0+commit.c7dfd78e.Emscripten.clang"
  },
  "schemaVersion": "3.4.13",
  "updatedAt": "2023-03-21T18:17:39.674Z",
  "devdoc": {
    "kind": "dev",
    "methods": {},
    "version": 1
  },
  "userdoc": {
    "kind": "user",
    "methods": {},
    "version": 1
  }
}